:100000000C94B9040C94E1040C94E1040C94E10404
:100010000C94E1040C94E1040C94E1040C94E104CC
:100020000C94E1040C94E1040C94E1040C94E104BC
:100030000C94E1040C94E1040C94E1040C94E104AC
:100040000C94C40A0C94E1040C94290E0C94EE0D4B
:100050000C94E1040C94E1040C94E1040C94E1048C
:100060000C9451080C94E104CC19CC19F119F11934
:100070006819E819071A071A071A071A071A071A38
:10008000071A071ACC19F119881988196D1A6D1AEF
:10009000A51AE91ABD19BD19BD19BD19BD19BD199A
:1000A000BD19BD19FE1A4F1B01B202FFFF019004DA
:1000B0000923A135016A0206000160080000000062
:1000C0000000000000600440000000016202000027
:1000D00000600400400000037B034CCD6C03AB03C5
:1000E00036567600680402CB47A202180400058B3E
:1000F000C1010C0400000000037F060CC92C979777
:1001000097038903264666006C0220000240040023
:100110000000000244040000000002480400000047
:1001200000024C0400000000025004000000000225
:1001300054040000000002580400000000025C04A7
:100140000000000002BC040000000001EC040000FC
:100150004000037F060CC92C9797970402030D35C6
:100160005D040904872D353D00A301000000000156
:10017000078601FE074105F120283038077E01304F
:100180000746019A074704F1283038076C04F12824
:1001900030380216020001FB00003E000B00360062
:1001A0000100020003000000650054FFEF0000FAA8
:1001B00080000B128200010002000000000000001D
:1001C0000000000000000000280000FFFF4581FF44
:1001D000FFFA7200000000000003E80000000100C8
:1001E000017FFFFFFE8001001B00000000000000F7
:1001F00000000000000000003E033040000000024C
:10020000CAE3093E8000002000000000000000401A
:100210000000006000000041FF000000000B2A0009
:1002200000165500002182FD872650FD8000000049
:100230001F00000005800000000000000100000019
:1002400002000000030000400000000000046F00F6
:1002500002653200005EC0400000000000000000A7
:1002600000000000000000FB8C6F5DFD5D08D90000
:100270007C733B006C12CC3200139D3200D0D6321E
:10028000000800400001F4FFE68079020000000051
:1002900000D0D600002710FB000000400000000046
:1002A000000000000000000000000100000000004D
:1002B000000100010000000000FA36FFBC308E0093
:1002C00005FBF0FFD95BC8FFD09ABE000010A9FF64
:1002D000F41EB200CEBBF7000000010000000400D5
:1002E0000200020200000CFFC2800000018000003A
:1002F000CF8000400000000000000100000000006E
:1003000000060000000014000000000000000000D3
:1003100000000000000000000000000000000000DD
:1003200000000000000000000000000000000000CD
:100330000000000000000000000000033F68B679E4
:100340003528BCC67ED16C80000000400000000053
:1003500000B26A0000000000000000000000000081
:10036000003FF0000000300000000000000000002E
:10037000000000000000000000000000000000007D
:10038000000000000000000000254D002F706D00EF
:100390000005AE000C02D00000000000650054FF14
:1003A000EF00000000000000000100004400000019
:1003B000000C0000000100000000000065000000CB
:1003C000540000FFEF0000000000000000000000EB
:1003D00000000000000000400000000000000000DD
:1003E00000000000000000400000000000000000CD
:1003F00000000000000000000000010000000200FA
:1004000000000000000000000000000000000000EC
:1004100000000000000000000000000000000000DC
:1004200000000000000000001B00000000000000B1
:1004300000000000000000000000000000000000BC
:1004400000000000000000000000000000000000AC
:1004500000000040000000001B0000000000000041
:10046000000000000000000000000000000000008C
:10047000000000000000000000000000000000007C
:10048000000000000000000000000000000000006C
:1004900000000000000000D8DCBAA2F1DEB2B8B45F
:1004A000A88191F74A907F916AF3F9DBA8F9B0BA75
:1004B000A080F2CE81F3C2F1C1F2C3F3CCA2B2802C
:1004C000F1C6D880BAA7DFDFDFF2A7C3CBC5B6F08D
:1004D00087A2942448703C95406834589B78A2F1D8
:1004E00083922D557DD8B1B4B8A1D09180F270F32C
:1004F00070F27C80A8F101B09887D943D886C9886A
:10050000BAA1F20EB89780F1A9DFDFDFAADFDFDF43
:10051000F2AAC5CDC7A90CC92C97979797F1A989BD
:10052000264666B0B4BA80ACDEF2CAF1B28C02A93B
:10053000B69800890E161EB8A9B4992C547CB08ABE
:10054000A896365676F1B9AFB4B083C0B8A8971163
:10055000B18F98B9AFF0240844106418F1A329555D
:100560007DAF83B593AFF0002850F1A3869F61A6BD
:10057000DADEDFD9FAA38696DB31A6D9F8DFBAA690
:100580008FC2C5C7B28CC1B8A2DFDFDFA3DFDFDF58
:10059000D8D8F1B8A8B286B4980D355DB8AA98B08D
:1005A000872D353DB2B6BAAF8C96198F9FA70E1620
:1005B0001EB49AB8AA872C547CB9A3DEDFDFA3B19E
:1005C00080F2C4CDC9F1B8A9B499830D355D89B95C
:1005D000A32D557DB593A30E161EA92C547CB8B43B
:1005E000B0F19783A81184A50998A383F0DA2408B1
:1005F00044106418D8F1A529557DA58595021A2EB9
:100600003A565A4048F9F3A3D9F8F098832408449D
:100610001064189782A8F111F098A224084410647D
:1006200018DAF3DED883A59401D9A302F1A2C3C5D9
:10063000C7D8F18492A24DDA2AD84869D92AD86855
:1006400055DA32D85071D932D8705DDA3AD8587943
:10065000D93AD87893A34DDA2AD84869D92AD868E4
:1006600055DA32D85071D932D8705DDA3AD8587923
:10067000D93AD878A88A9AF02850789EF38818F149
:100680009F1D98A8D908D8C89F129EF315A8DA1202
:1006900010D8F1AFC8978734B5B994A421F3D92203
:1006A000D8F22DF3D92AD8F235F3D932D881A46003
:1006B0006061D961D86C6869D969D8747071D97171
:1006C000D8B1A384193D5DA3831A3E5E9310308197
:1006D0001011B8B0AF8F94F2DA3ED8B49AA8872937
:1006E000DAF8D8879A35DAF8D8879A3DDAF8D8B1A7
:1006F000B9A49885022E56A581000C14A397B08A40
:10070000F12DD928D84DD948D86DD968D8B1840DE4
:10071000DA0ED8A32983DA2C0ED8A3844983DA2CE5
:100720004C0ED8B8B0A88A9AF520AADADFD8A8402B
:10073000AAD0DADED8A860AADAD0DFD8F19786A8E6
:10074000319B069907AB9728889BF00C201440B882
:10075000B0B4A88C9CF0042851791D301438B282B2
:10076000ABD0982C505078789BF11AB0F08A9CA8A6
:100770002951798B2951798A2470598B2058718A93
:100780004469388B3940688A6448318B304960A5A8
:1007900088200971584468113964493019F1AC0056
:1007A0002C547CF08CA804285078F1889726A859FE
:1007B00098AC8C02264666F0899CA8295179247051
:1007C00059446938644831A98809205970AB1138F7
:1007D0004069A8193148608CA83C415C207C00F13C
:1007E00087981986A86E767EA999882D557D9EB921
:1007F000A38A228A6E8A568A5E9FB183062646663F
:100800000E2E4E6E9DB8AD002C547CF2B18CB49976
:10081000B9A32D557D8191AC38AD3AB58391AC2DFE
:10082000D928D84DD948D86DD968D88C9DAE29D94A
:1008300004AED851D904AED879D904D881F39DAD8E
:10084000008DAE1981ADD901D8F2AEDA26D88E91DD
:100850002983A7D9ADADADADF32AD8D8F1B0AC8915
:10086000913E5E76F3AC2E2EF1B18C5A9CAC2C28C6
:1008700028289CAC3018A8988128343C9724A728B5
:10088000343C9C24F2B089AC912C4C6C8A9B2DD9C1
:10089000D8D851D9D8D879D9D8D8F19E88A331DA07
:1008A000D8D8912DD928D84DD948D86DD968D8B184
:1008B0008393353D8025DAD8D88569DAD8D8B493C2
:1008C00081A328343CF3AB8BF8A391B609B4D9AB20
:1008D000DEFAB0879CB9A3DDF1A3A3A3A395F1A38E
:1008E000A3A39DF1A3A3A3A3F2A3B49080F2A3A317
:1008F000A3A3A3A3A3A3A3A3B2A3A3A3A3A3A3B0AC
:1009000087B599F1A3A3A398F1A3A3A3A397A3A346
:10091000A3A3F39BA3A3DCB9A7F1262626D8D8FF6F
:1009200000000000250028002B000000000024002B
:1009300027002A000404040404040404020202023E
:100940000202030303030303010204081020408092
:100950000102040810200102040810200000000712
:100960000002010000030406000000000000000077
:10097000751B11241FBECFEFD8E0DEBFCDBF11E045
:10098000A0E0B1E0ECEEF2E402C005900D92A034DC
:10099000B107D9F724E0A0E4B1E001C01D92A03076
:1009A000B207E1F714E0C9EBD4E004C02197FE01DF
:1009B0000E944F20C83BD107C9F70E94630E0C94D8
:1009C0001E1C0C94000085ED8093BC008091BC003F
:1009D00084FDFCCF1092C7010895E091A903F09126
:1009E000AA03309729F0109295021092940209946C
:1009F0000895AC01E091A703F091A8033097E1F0CE
:100A000090919702809196029817B0F090E0292F6C
:100A100030E02617370754F4DA01A20FB31F8C9188
:100A2000D901A955BE4F8C939F5FF1CF10929702C9
:100A300060939602CB01099408950895E09197027E
:100A400080919602E81730F4F0E0E955FE4F80817E
:100A500090E008958FEF9FEF089590919702809115
:100A60009602981750F4E92FF0E0E955FE4F2081E7
:100A700030E09F5F9093970202C02FEF3FEFC901D4
:100A80000895209194029091E901213208F046C026
:100A90008091C7018111FCCF32E03093C70131E072
:100AA0003093F2033FEF3093F1031092F003209361
:100AB000EF03A9ECB1E04FEC53E0FA013E2F341BF9
:100AC000321718F43D913193F9CF1092CE03209153
:100AD000CE03990F922B9093CE039091CD0391303A
:100AE00041F41092CD039091CE039093BB0095EC0E
:100AF00001C095EE9093BC009091C7019230E1F354
:100B00009091F1039F3F79F08091F103803241F0A1
:100B10008091F103803331F084E005C081E003C0AF
:100B200082E001C083E0109295021092940210922C
:100B3000C8010895CF93DF93EA0191E09093C80133
:100B40008093E901109295021092940288E992E054
:100B50000E94280D698188E992E00E94280D688131
:100B600088E992E00E94280D0E94410591E08111E0
:100B700090E0892FDF91CF9108959091C701911155
:100B8000FCCF91E09093C7019093F2032FEF209355
:100B9000F1031092F003260F2093EF039093CE03FE
:100BA0009091CE03880F892B8093CE038091CD0343
:100BB000813041F41092CD038091CE038093BB002D
:100BC00085EC01C085EE8093BC008091C701813027
:100BD000E1F38091F003861710F46091F003AFEC1D
:100BE000B3E027EA31E0F9018E2F821B861718F453
:100BF0008D918193F9CF862F0895EF92FF920F93F5
:100C00001F93CF93DF931F92CDB7DEB77A0189018F
:100C10009E012F5F3F4F41E00E94760B882339F001
:100C200029812E7730E035952795F70120830F90A5
:100C3000DF91CF911F910F91FF90EF9008950F9347
:100C40001F93662351F0462F9C0108EE13E064E7E2
:100C50008091A4020E94760B02C0FC0110821F91B9
:100C60000F9108950F931F93CF93DF93C4EAD2E0BF
:100C700008EE13E025EA32E041E06AE388810E9451
:100C8000760B8981DF91CF911F910F91089521E01B
:100C900042E06AE68091A4020C94800C0F931F93AB
:100CA000CF93DF93C4EAD2E008EE13E025EA32E006
:100CB00042E062E788810E94760B898190E0982F5C
:100CC00088272A81822BDF91CF911F910F91089560
:100CD000482F6EE68091A4020C94660B2F923F92EF
:100CE0004F925F926F927F928F929F92AF92BF923C
:100CF000CF92DF92EF92FF920F931F93CF93DF93E8
:100D00003C015B01342ED22F202E4F716DE6809175
:100D1000A4020E94660B8D2F0E94680680E190E07D
:100D20000E943B1C6C01002339F080E190E00E949E
:100D30003B1CC82F492E02C0C0E0412CE12CF12CF5
:100D4000EA14FB0408F06EC0C7014096A816B90665
:100D500018F45A2C5E1802C080E1582E852D90E0C0
:100D600020E031E02D1B31092817390714F45D2EDE
:100D70005194F301EE0DFF1D222059F09C2FAC2F52
:100D8000B42D8A2F891B851530F484918D9331966B
:100D9000F8CFCE2F4F2E2C2F342D452D6FE680917E
:100DA000A4020E942D0B852C912CC114D10429F191
:100DB000432D4F716DE68091A4020E94660B8D2F2A
:100DC0000E94680608EE13E09601452D6FE68091BB
:100DD000A4020E94760BA401B6018C2F942D0E94D0
:100DE000321E892B51F0C6010E94D01C222021F115
:100DF0008C2F942D0E94D01C1FC0E80CF91CD50D1F
:100E0000EA14FB0408F09CCFD11101C03394432DA8
:100E10004F716DE68091A4020E94660B8D2F0E9497
:100E200068068ECFC6010E94D01C222039F08C2F7C
:100E3000942D0E94D01C02C080E001C081E0DF91AF
:100E4000CF911F910F91FF90EF90DF90CF90BF90C7
:100E5000AF909F908F907F906F905F904F903F905A
:100E60002F900895613208F060E20E94BD05109253
:100E700097028093960208959091CF0221E02093EB
:100E8000C8019093E9011092950210929402682F84
:100E900088E992E00E94280D0C9441050F931F935E
:100EA000CF938C5B0E943C0761E070E080E090E0B3
:100EB0000E94920A64E070E080E090E00E94920A52
:100EC00080E00E943C0763E070E08091CF02909147
:100ED000D0020E943207E0E0C0E000E0909196026C
:100EE00080919702981781F088E992E00E942D0581
:100EF000082F88E992E00E942D05C82F88E992E02A
:100F00000E942D05E82FEACF802F90E0A0E0B0E00E
:100F10009C01112700274C2F50E060E070E0762FF5
:100F2000652F542F4427D901C801840F951FA61F90
:100F3000B71FBC01CD016E0F711D811D911DCF9199
:100F40001F910F91089546E353E0FA012FEF3FEF11
:100F50009E2F941B981788F49191292798E0B90146
:100F60006170772736952795672B21F061E026275A
:100F700060EA3627915099F7EBCF922F832F08958F
:100F800090E0FC01E85BF64F2491FC01EC5CF64F2D
:100F90008491882399F090E0880F991FFC01E65D09
:100FA000F64FA591B491FC01E05EF64F85919491C6
:100FB0008FB7F894EC91E22BEC938FBF0895CF9309
:100FC000C09176038C2F0E94A307EC2FF0E0E15D27
:100FD000FC4F9783E1E0EC0FF0E0E15DFC4F87838D
:100FE000CE5FC093760380913303823040F09091BE
:100FF000C00090649093C00061E00E94C30980919A
:101000003203843080F480912F0390913003DC010F
:10101000ED91FC914091760350E00280F381E02D48
:1010200066E373E0099580913303823038F0909144
:10103000C00096FFFCCF60E00E94C309809132039C
:10104000843008F1109276030E94B80A2091800340
:1010500030918103DC01CB01820F931FA11DB11DD3
:101060008093860390938703A0938803B0938903AA
:1010700080917C0390917D03019690937D038093F2
:101080007C03CF91089580912F0390913003DC0170
:10109000ED91FC910680F781E02D099597FFF3CF44
:1010A000D1CF1F920F920FB60F9211242F933F931F
:1010B0004F935F936F937F938F939F93AF93BF9360
:1010C000EF93FF938091B900887F803609F49CC02C
:1010D00068F5883209F45BC090F4803109F454C09B
:1010E00038F4882309F4F3C0883009F44DC0F3C004
:1010F000883109F44CC0803209F45DC0ECC0803402
:1011000009F468C048F4803309F455C0883309F005
:10111000E2C08093F103D5C0803509F44FC0883513
:1011200009F45DC0883409F0D6C0D3C0883909F409
:10113000C4C0A8F4883709F467C038F4883609F4C5
:1011400063C0803709F460C0C6C0883809F4B5C0F0
:10115000803909F45FC0803809F0BDC05BC0803BB6
:1011600009F483C038F4803A09F466C0883A09F477
:101170007CC0B1C0803C09F4A4C0883C09F4A1C083
:10118000883B09F487C0A7C08091CE0310C090911E
:10119000F0038091EF03981770F5E091F00381E080
:1011A0008E0F8093F003F0E0E153FC4F8081809339
:1011B000BB0085EC83C08093F1038BC0E091F0030A
:1011C00081E08E0F8093F0038091BB00F0E0E1534B
:1011D000FC4F80839091F0038091EF036BC0E0910E
:1011E000F00381E08E0F8093F0038091BB00F0E06C
:1011F000E153FC4F80838091F20381116AC081E04A
:101200008093CD0384EA5EC083E08093C70110928F
:10121000CC03CFCF8091CC03803208F04EC0E09158
:10122000CC0381E08E0F8093CC038091BB00F0E073
:10123000E455FC4F8083BDCF8091CC03803230F4E5
:10124000E091CC03F0E0E455FC4F10820E94E304EF
:101250006091CC0370E0E091A501F091A6018CEAC9
:1012600093E009951092CC032CC084E08093C701D1
:101270001092AB031092A401E091A201F091A3019E
:1012800009958091A401811105C081E08093A4019A
:1012900010928201E091AB0381E08E0F8093AB034B
:1012A000F0E0EE57FE4F80818093BB009091AB033E
:1012B0008091A401981708F47CCF85E88093BC0046
:1012C0000AC085EC8093BC001092C70104C0109244
:1012D000F1030E94E304FF91EF91BF91AF919F91C1
:1012E0008F917F916F915F914F913F912F910F90CF
:1012F0000FBE0F901F9018951092C70181E0809348
:10130000F2031092CD0361E082E10E94C30961E023
:1013100083E10E94C309E9EBF0E080818E7F808346
:1013200080818D7F808388E48093B80085E48093FA
:10133000BC0008950895CF92DF92EF92FF920F9331
:101340001F93CF93DF936C01EB017B01E40EF51E3D
:1013500000E010E0CE15DF0561F06991D601ED9156
:10136000FC910190F081E02DC6010995080F191F2D
:10137000F1CFC801DF91CF911F910F91FF90EF90B6
:10138000DF90CF90089590E0FC01E45AF64F34913D
:10139000FC01E85BF64F2491FC01EC5CF64FE49114
:1013A000EE2309F43BC0332339F1333091F038F4A4
:1013B0003130A9F0323001F584B58F7D12C036305E
:1013C00091F03730A1F03430B9F4809180008F7DF6
:1013D00003C0809180008F77809380000DC084B51A
:1013E0008F7784BD09C08091B0008F7703C0809152
:1013F000B0008F7D8093B000F0E0EE0FFF1FE05E45
:10140000F64FA591B4918FB7F894EC91611103C098
:1014100020952E2301C02E2B2C938FBF08951F9350
:10142000CF93DF93182FEB010E94C007209711F490
:1014300060E004C0CF3FD10539F461E0812FDF9136
:10144000CF911F910C94C309E12FF0E0E45AF64FBD
:10145000E491E330F9F048F4E130B9F0E230A1F57D
:1014600084B5806284BDC8BD34C0E630E9F0E730A1
:1014700019F1E43049F5809180008062809380000A
:10148000D0938B00C0938A0024C084B5806884BD4B
:10149000C7BD1FC080918000806880938000D0937A
:1014A0008900C093880015C08091B0008068809347
:1014B000B000C093B3000DC08091B00080628093F3
:1014C000B000C093B40005C0C038D1050CF0B5CF52
:1014D000AFCFDF91CF911F9108953FB7F8948091DE
:1014E000F8039091F903A091FA03B091FB0326B59C
:1014F000A89B05C02F3F19F00196A11DB11D3FBF4C
:10150000BA2FA92F982F8827820F911DA11DB11DD9
:10151000BC01CD0142E0660F771F881F991F4A95D5
:10152000D1F70895CF92DF92EF92FF92CF93DF939E
:101530006B017C010E946D0AEB01C114D104E1042E
:10154000F10479F00E946D0A6C1B7D0B683E7340BC
:10155000A0F381E0C81AD108E108F108C851DC4FB6
:10156000ECCFDF91CF91FF90EF90DF90CF90089577
:101570002FB7F8946091F4037091F5038091F6030E
:101580009091F7032FBF08951F920F920FB60F92FD
:1015900011242F933F938F939F93AF93BF93809189
:1015A000F4039091F503A091F603B091F703309105
:1015B000F30323E0230F2D3720F40196A11DB11D65
:1015C00005C026E8230F0296A11DB11D2093F30349
:1015D0008093F4039093F503A093F603B093F7037D
:1015E0008091F8039091F903A091FA03B091FB0365
:1015F0000196A11DB11D8093F8039093F903A09368
:10160000FA03B093FB03BF91AF919F918F913F91EC
:101610002F910F900FBE0F901F901895CF93282FEA
:10162000862FC42F121634F4622F660F770B0E9498
:101630000F0A0EC0222349F0220F330BB9016F5F4E
:101640007E4F0E940F0A61E004C060E00E94C3095F
:1016500060E08C2FCF910C94C309EF92FF920F930F
:101660001F93CF93DF9300D0CDB7DEB7142F91E057
:101670009093C8018093E901109295021092940210
:1016800088E992E029833A830E94280D2981022F5C
:10169000E22E3A81F32E8E2D801B811740F4F70144
:1016A00061917F0188E992E00E94280DF4CF0E94A9
:1016B000410591E0811190E0892F0F900F90DF910B
:1016C000CF911F910F91FF90EF900895CF93DF93EB
:1016D0001F92CDB7DEB749839E012F5F3F4F41E098
:1016E0000E942D0B0F90DF91CF9108952F923F9282
:1016F0004F925F926F927F928F929F92AF92BF9222
:10170000CF92DF92EF92FF920F931F93CF93DF93CD
:1017100000D000D000D0CDB7DEB78E83962E4D839B
:1017200059010E94B80A6B017C01312C812C2224C2
:1017300023949D81892F90E09C838B832801612CC9
:10174000712CFD813F1608F058C02092C801EE812F
:10175000E093E9011092950210929402692D88E9B4
:1017600092E00E94280D0E9441052092C801FE814E
:10177000F093E90110929502109294026B817C81A2
:10178000631971096132710514F060E270E0613231
:1017900008F060E28E810E94BD051092970280934E
:1017A00096029091960280919702981701F1011587
:1017B000110581F4C501880D911D87FC9A959A83C6
:1017C000898388E992E00E942D05E981FA8180836E
:1017D0008394E7CF0E94B80ADC01CB018C199D09E4
:1017E000AE09BF0984159505A605B70518F38D81C7
:1017F000813208F080E2380EA4CF01151105D9F02E
:101800000E94B80ADC01CB018C199D09AE09BF0901
:1018100020E030E080179107A207B30760F08D81C8
:10182000282F30E0882D082C000C990B8217930785
:1018300014F488248A94882D26960FB6F894DEBF77
:101840000FBECDBFDF91CF911F910F91FF90EF9011
:10185000DF90CF90BF90AF909F908F907F906F90D0
:101860005F904F903F902F900895BF92CF92DF925C
:10187000EF92FF920F931F93CF93DF931F92CDB7F9
:10188000DEB7F82EE62EC42EB22ED02E08EE13E0D0
:101890009E012F5F3F4F41E00E94760B882321F18C
:1018A000EC2DF0E0EB19F109319621E030E002C0B7
:1018B000220F331FBA94E2F7215031090E2E01C0D6
:1018C000220F0A94EAF78D2D01C0880FEA95EAF7F6
:1018D000422F4095998149232823422B49836E2D1D
:1018E0008F2D0E94660B01C080E00F90DF91CF9199
:1018F0001F910F91FF90EF90DF90CF90BF900895D0
:10190000CF92DF92EF92FF920F931F93CF93DF93CB
:101910001F92CDB7DEB7F82EE62ED42EC22E08EEDB
:1019200013E09E012F5F3F4F41E00E94760B9981AB
:10193000CC2041F041E050E001C0440FDA94EAF7D6
:10194000492B09C021E030E0A90101C0440FDA941D
:10195000EAF74095492349836E2D8F2D0E94660B2F
:101960000F90DF91CF911F910F91FF90EF90DF903B
:10197000CF9008951F93CF93DF931F92CDB7DEB71B
:10198000162FFC01808191E09093C8018093E901BA
:10199000109295021092940260E088E992E07983B7
:1019A0000E94280D7981672F88E992E00E94280D16
:1019B000612F88E992E00E94280D0F90DF91CF916E
:1019C0001F910C9441058091960290E0209197021E
:1019D000821B91090895CF92DF92EF92FF920F93AD
:1019E0001F93CF93DF937C018A018091C8018823E4
:1019F00089F0EB016B01C40ED51ECC15DD05F1F0AD
:101A00006991D701ED91FC910190F081E02DC70122
:101A10000995F3CF842F413288F49091C701943017
:101A200069F44093A401FB0122E831E0D9019A2F27
:101A3000921B981718F491919D93F9CFC801DF91EB
:101A4000CF911F910F91FF90EF90DF90CF9008956D
:101A50002091C8012223C9F020919402203240F045
:101A600021E030E0FC013383228380E090E00895A0
:101A700080919502E82FF0E0E753FE4F60838F5F7F
:101A8000809395028093940209C08091C7018430AD
:101A900029F481E08093A4016093820181E090E0C9
:101AA00008950F931F93CF93DF93FC01A685B7850D
:101AB0008D01005C1F4FE8018881998101968F7329
:101AC0009927AD014E5B5F4FEA012881398182176A
:101AD0009307D1F3E80128813981A20FB31F6C93DA
:101AE000A685B785A05CBF4F11969C938E93A6895F
:101AF000B7892C9181E090E0078C02C0880F991F74
:101B00000A94E2F7822B8C9381E081A30488F58903
:101B1000E02D80818064808381E090E0DF91CF912F
:101B20001F910F910895FC0181A1882329F0A489B8
:101B3000B5898C9186FFFBCF11A20895FC01A48585
:101B4000B585FD01E05CFF4F2081318132968081B7
:101B500091812817390779F080819181A80FB91FE9
:101B60008C91208131812F5F3F4F2F733327318339
:101B7000208390E008958FEF9FEF0895DC011C967D
:101B8000ED91FC911D97DF01A05CBF4F2D913C9121
:101B9000119712968D919C9111972817390739F05A
:101BA0008D919C91E80FF91F808190E008958FEF4F
:101BB0009FEF0895FC0124853585F901E05CFF4F16
:101BC00080819181329620813181821B930B8F73AA
:101BD0009927089582E792E00C94DA0D1F920F92F4
:101BE0000FB60F9211242F933F938F939F93EF93F0
:101BF000FF9320912A0230912B0280912C02909128
:101C00002D022817390731F48091C1008F7D809310
:101C1000C10014C0E0912C02F0912D02E651FE4F5C
:101C2000208180912C0290912D0201968F7399272B
:101C300090932D0280932C022093C600FF91EF9188
:101C40009F918F913F912F910F900FBE0F901F90FA
:101C500018951F920F920FB60F9211242F934F9346
:101C60005F938F939F93EF93FF938091C00082FDCA
:101C70001CC02091C60080916E0290916F02019667
:101C80008F739927409170025091710284179507C4
:101C900071F0E0916E02F0916F02E25DFD4F2083E2
:101CA00090936F0280936E0202C08091C600FF91F4
:101CB000EF919F918F915F914F912F910F900FBE58
:101CC0000F901F901895CF93DF93CDB7DEB7C35D0C
:101CD000D1090FB6F894DEBF0FBECDBF789484B59E
:101CE000826084BD84B5816084BD85B5826085BD18
:101CF00085B5816085BD80916E00816080936E00A6
:101D00001092810080918100826080938100809197
:101D10008100816080938100809180008160809348
:101D200080008091B10084608093B1008091B00008
:101D300081608093B00080917A00846080937A0003
:101D400080917A00826080937A0080917A0081602D
:101D500080937A0080917A00806880937A00109254
:101D6000C1008DE00E94C00782E00E94C00783E0AE
:101D70000E94C0078FE00E94C00785E00E94C00754
:101D800080E10E94C00786E00E94C00788E00E94B0
:101D9000C00789E00E94C00784E00E94C0078EE06F
:101DA0000E94C00787E00E94C00781E10E94C0072F
:101DB0008AE00E94C00782E792E09093300380930C
:101DC0002F03E0918602F091870281E090E09C0170
:101DD0000090920202C0220F331F0A94E2F7208380
:101DE000E0918202F09183021082E0918402F091EE
:101DF000850227E0208310929302E0918802F091FF
:101E0000890240819C0100908E0202C0220F331F84
:101E10000A94E2F7242B2083E0918802F091890252
:101E200040819C0100908F0202C0220F331F0A9450
:101E3000E2F7242B2083E0918802F091890240810F
:101E40009C010090900202C0220F331F0A94E2F717
:101E5000242B2083E0918802F09189022081009058
:101E6000910202C0880F991F0A94E2F7809582239D
:101E7000808380913303823038F00E94C00760E095
:101E8000809133030E94C30980912F039091300306
:101E9000DC01ED91FC910680F781E02D099597FF1B
:101EA000F3CF109276031092770310927F03109273
:101EB0007E0310927D0310927C0310927B0310929C
:101EC0007A031092BA008DEE94E09093A301809370
:101ED000A20189EF94E09093A6018093A50110924E
:101EE00097021092960210929502109294020E940C
:101EF0007C0981EDC82E82E0D82E10EA812F0E9445
:101F00003C0762E070E08091CF029091D0020E9485
:101F1000320788E992E00E942D05082F88E992E0B7
:101F20000E942D05F02EE12CF701E82BCF01D60100
:101F30008D939D936D011E5F103B01F701E023E03F
:101F400042E06BE68091A4020E94350C00E022E0A2
:101F500044E06BE18091A4020E94350C22E044E051
:101F60006CE18091A4020E94350C20E046E06BE613
:101F70008091A4020E94800C21E047E06BE68091F2
:101F8000A4020E94800C6EE170E080E090E00E946C
:101F9000920A20E046E06BE68091A4020E94800C49
:101FA00040E76DE68091A4020E94660B86E00E94E5
:101FB000680640E06DE68091A4020E94660B28EE60
:101FC00033E045EA52E060E08091A4020E94FD0502
:101FD0008090A50228EE33E045EA52E061E080916E
:101FE000A4020E94FD059090A50228EE33E045EA88
:101FF00052E062E08091A4020E94FD05A090A5023B
:102000004FE765E28091A4020E94660B20E045E064
:102010006AE68091A4020E94800C48E665E2809105
:10202000A4020E94660B21E041E06AE68091A402CE
:102030000E94800C64E170E080E090E00E94920ACF
:1020400001E020E040E069E877E087E991E00E9464
:102050006E06882309F4CDC288E090E00E943B1C04
:10206000B82E192FE12CF12CF701E952FF4F4491C2
:10207000F701E852FF4F24916701B3E0CB0ED11C6A
:10208000F701E752FF4FE491EE23D1F1EE2EF12C50
:10209000E330D8F0B7018B2D912FCD52DF4F28833D
:1020A000C35DD040CE52DF4F4883C25DD0400E9416
:1020B000681DB82E192FCE52DF4F4881C25DD04027
:1020C000CD52DF4F2881C35DD040AB2DB12F80E0D2
:1020D00090E08E159F0548F4F601E80FF91FE952CC
:1020E000FF4FE491ED930196F4CF00E0B7018B2D03
:1020F000912F0E946E06EC0CFD1C811117C010C0C0
:10210000E4E0EE0EF11CF601E952FF4FE491E130FC
:1021100039F442E368E38091A4020E94660B06C092
:102120008B2D912F0E94D01C12E064C2F0ECEF16B0
:10213000F10408F499CF8B2D912F0E94D01C03E05D
:1021400023E042E06BE68091A4020E94350C42E15C
:1021500068E38091A4020E94660B44E069E18091EB
:10216000A4020E94660B01E023E045E06AE1809151
:10217000A4020E94350C03E023E042E06AE1809172
:10218000A4020E94350C22E044E06BE18091A4029D
:102190000E94350C43E060E78091A4020E94660B28
:1021A00040E061E78091A4020E94660B20E040E0DD
:1021B00060E08091A4020E94800C082D26E046E099
:1021C00060E08091A4020E94350C092D26E046E0D3
:1021D00061E08091A4020E94350C0A2D26E046E0C1
:1021E00062E08091A4020E94350CE12CF12CF701F1
:1021F000E855FF4FE491A1E8B0E0AC0FBD1FAE0D74
:10220000B11DEC9381E08E0D0FEFE01AF00A13E0A0
:102210001E1568F7CD57DF4F6881C358D04070E076
:102220009B012E5F3F4F90E02817390704F700E02D
:10223000CE57DF4F2881C258D040CF57DF4F48815B
:10224000C158D04081E890E08C0F9D1F03960E94FA
:102250006E0680E0F701E855FF4FE491A1E8B0E099
:10226000AC0FBD1FA80FB11DEC938F5F2FEFE21ACB
:10227000F20A843078F3CD57DF4F6881C358D040DD
:1022800070E0AB014E5F5F4F282F30E042175307DD
:102290000CF700E0CE57DF4F2881C258D040CF570F
:1022A000DF4F4881C158D04081E890E08C0F9D1FDE
:1022B00003960E946E060E9447060E944E06682FF3
:1022C000CE0101960E941F0642E06FE18091A402B8
:1022D0000E94660B4CE961E28091A4020E94660BA9
:1022E00040E560E28091A4020E94660B40E062E259
:1022F0008091A4020E94660B0E94470621E046E0FE
:102300006AE68091A4020E94800C21E047E06AE620
:102310008091A4020E94800C21E043E06AE6809153
:10232000A4020E94800C80E0F701E855FF4FE49181
:10233000A1E8B0E0AC0FBD1FA80FB11DEC938F5FFB
:102340003FEFE31AF30A843078F3CD57DF4F68810B
:10235000C358D04070E0AB014E5F5F4F282F30E094
:10236000421753070CF700E0CE57DF4F2881C258C1
:10237000D040CF57DF4F4881C158D04081E890E02E
:102380008C0F9D1F03960E946E0680E0F701E855B2
:10239000FF4FE491A1E8B0E0AC0FBD1FA80FB11D45
:1023A000EC938F5F4FEFE41AF40A843078F3CD5743
:1023B000DF4F6881C358D04070E0AB014E5F5F4F84
:1023C000282F30E0421753070CF700E0CE57DF4FBD
:1023D0002881C258D040CF57DF4F4881C158D040E4
:1023E00081E890E08C0F9D1F03960E946E0680E0AE
:1023F000F701E855FF4FE491A1E8B0E0AC0FBD1F35
:10240000A80FB11DEC938F5F5FEFE51AF50A8430DA
:1024100078F3CD57DF4F6881C358D04070E0AB01EF
:102420004E5F5F4F282F30E0421753070CF700E054
:10243000CE57DF4F2881C258D040CF57DF4F488159
:10244000C158D04081E890E08C0F9D1F03960E94F8
:102450006E060E944E0683309105D8F3682FCE0198
:1024600001960E941F0680E0F701E855FF4FE491B6
:10247000A1E8B0E0AC0FBD1FA80FB11DEC938F5FBA
:102480006FEFE61AF60A843078F3CD57DF4F3880C5
:10249000C358D040832C912CA4014E5F5F4F282F4E
:1024A00030E04217530704F7CE57DF4FB880C258C9
:1024B000D040CF57DF4F2880C158D040422D4F71B8
:1024C0006DE68091A4020E94660B8B2D0E94680627
:1024D000C12CD12C612C7724739401E8402E512C0F
:1024E0004C0E5D1E73E0470E511CC814D90498F5BC
:1024F000C60140968816990618F4A32CAC1802C0A1
:10250000B0E1AB2E8A2D90E093012B1931092817E9
:10251000390714F4AB2CA19492012C0D3D1D08EE4B
:1025200013E04A2D6FE68091A4020E94760BCA0C3C
:10253000D11CBA0CC814D904C0F6B11001C0239440
:10254000422D4F716DE68091A4020E94660B8B2D87
:102550000E946806CACF0E944E0683309105D8F3C8
:10256000682FCE0101960E941F06F701E855FF4F24
:1025700080E09491A1E8B0E0AC0FBD1FA80FB11DA1
:102580009C938F5F843010F43196F3CFCD57DF4F9B
:102590006881C358D04070E0AB014E5F5F4F282F79
:1025A00030E04217530784F700E0CE57DF4F288111
:1025B000C258D040CF57DF4F4881C158D04081E842
:1025C00090E08C0F9D1F03960E946E0620E047E06E
:1025D0006AE68091A4020E94800C8AE290E09093C7
:1025E000A7028093A6020E9447060E94320610E0CE
:1025F00001C011E08091A4022CED30E0CD56DF4FF8
:1026000039832883C359D040AE014D565F4F63E1F3
:102610000E949A058091A4022CE430E0CF56DF4F4F
:1026200039832883C159D040AE014F565F4F65E1D1
:102630000E949A058091A4022BEA3FEFCF57DF4F0B
:1026400039832883C158D040AE014F575F4F67E1AF
:102650000E949A058091A4022CEF36E03A832983E8
:10266000AE014F5F5F4F6AE00E949A05111113C0DF
:1026700021E047E06AE68091A4020E94800C0E945B
:102680003206809344018091A6029091A702909314
:1026900046018093450187E091E0A8E0A80FCF5262
:1026A000DF4FA883C15DD040809181018111EFC4CB
:1026B00080E090E00E944E07C754DF4F6883798323
:1026C0008A839B83C95BD04080E190E00E944E07E3
:1026D0002091DB023091DC02890120E030E0322FD2
:1026E000212F102F00276B017C01C01AD10AE20AAA
:1026F000F30ACF54DF4FC882D982EA82FB82C15BE2
:10270000D0402091DD023091DE0240E050E0C70170
:10271000B6010E94AE2007E10E94382119012A016A
:10272000920181010053184F2F4F3F4FCB54DF4F81
:10273000088319832A833B83C55BD040003D174043
:10274000210531050CF0E9C1C701B601A7019601C9
:102750000E94AE2001E20E94382159016A017B01EA
:10276000E82F192F02E00E941F210E2F0E945F21E7
:10277000CB56DF4F2883C559D040CA56DF4F388328
:10278000C659D040C956DF4F4883C759D040C856B4
:10279000DF4F5883C859D040C756DF4F6883C959A7
:1027A000D040C656DF4F7883CA59D040C556DF4F58
:1027B0008883CB59D040C456DF4F9883CC59D04042
:1027C000A2019101C201B1010E943F206B017C0175
:1027D000A3E0B0E09B01AC010E94211C8B019C0195
:1027E0003595279517950795C356DF4F08831983AD
:1027F0002A833B83CD59D040C356DF4F1881CD5932
:10280000D040C355DF4F1883CD5AD040C256DF4F5A
:102810002881CE59D040C354DF4F2883CD5BD040B0
:10282000C156DF4F3881CF59D040C254DF4F388373
:10283000CE5BD040C056DF4F4881C05AD040C15413
:10284000DF4F4883CF5BD0408B019C01330F000BDF
:10285000102F9801CF55DF4F088319832A833B83BC
:10286000C15AD040CF55DF4F1881C15AD040C05413
:10287000DF4F1883C05CD040CF53DF4F1883C15C5B
:10288000D040CE53DF4F1883C25CD040CD53DF4FD2
:102890001883C35CD040A5E0B0E0A70196010E9478
:1028A000211C6B017C01E3E0F594E794D794C79475
:1028B000EA95D1F7CB55DF4FC882D982EA82FB82F5
:1028C000C55AD040CB55DF4FD880C55AD040CC53E5
:1028D000DF4FD882C45CD040CA55DF4FE880C65A6B
:1028E000D040CB53DF4FE882C55CD040C955DF4FA5
:1028F000F880C75AD040CA53DF4FF882C65CD04038
:10290000C855DF4F0881C85AD040C953DF4F0883EC
:10291000C75CD0409B01AC01550F220B322FA9019F
:10292000C755DF4F288339834A835B83C95AD04018
:10293000C755DF4F3881C95AD040C853DF4F38835D
:10294000C85CD040C753DF4F3883C95CD040C65302
:10295000DF4F3883CA5CD040C553DF4F3883CB5C30
:10296000D040CB54DF4F88819981AA81BB81C55B60
:10297000D04084329A4FAF4FBF4F0CF07CC1C201A0
:10298000B1016455724F8F4F9F4F9B01AC010E9464
:102990003F202B013C01A7E0B0E09B01AC010E946D
:1029A000211C7B018C019B01AC01550F220B322FA6
:1029B000A901C355DF4F288339834A835B83CD5AEE
:1029C000D040C356DF4F2881CD59D040C256DF4F8B
:1029D0003881CE59D040C156DF4F4881CF59D040C1
:1029E000C056DF4F5881C05AD040CF55DF4F688165
:1029F000C15AD040762F862F962F57016801C355B4
:102A0000DF4FE880CD5AD040FE2C0E2D1E2D0E94A7
:102A10005621C355DF4F2883CD5AD040C354DF4FD2
:102A20003883CD5BD040C254DF4F4883CE5BD0406B
:102A3000C154DF4F5883CF5BD040C054DF4F688311
:102A4000C05CD040CF53DF4F7883C15CD040CE53C1
:102A5000DF4F8883C25CD040CD53DF4F9883C35C87
:102A6000D0408301720192E0EE0CFF1C001F111F89
:102A70009A95D1F727013801770C4408542C32017C
:102A8000CB55DF4F2881C55AD040CA55DF4F38811A
:102A9000C65AD040C955DF4F4881C75AD040C855A3
:102AA000DF4F5881C85AD040C755DF4F6881C95A97
:102AB000D040762F862F962F57016801E42CF42CF6
:102AC000042D142D0E945621CC53DF4F2883C45C63
:102AD000D040CB53DF4F3883C55CD040CA53DF4F63
:102AE0004883C65CD040C953DF4F5883C75CD04091
:102AF000C853DF4F6883C85CD040C753DF4F78832B
:102B0000C95CD040C653DF4F8883CA5CD040C553F0
:102B1000DF4F9883CB5CD040AEC0CF54DF4F68818D
:102B200079818A819B81C15BD0409B01AC010E946D
:102B3000AE2059016A017B01E82F192F03E00E94A2
:102B40001F210E2F0E945F210E94331F20E030E0E2
:102B500040E05DE20E94D21F0E94BA1ECB56DF4FBA
:102B60002883C559D040CA56DF4F3883C659D04054
:102B7000C956DF4F4883C759D040C856DF4F5883E6
:102B8000C859D040C756DF4F6883C959D040C65690
:102B9000DF4F7883CA59D040C556DF4F8883CB5961
:102BA000D040C456DF4F9883CC59D040A201910148
:102BB000C201B1010E943F208B019C01F4E03595D8
:102BC000279517950795FA95D1F7C355DF4F0883D9
:102BD000CD5AD040C354DF4F1883CD5BD040C25490
:102BE000DF4F2883CE5BD040C154DF4F3883CF5BAB
:102BF000D040DC01CB01BB0F880B982FDC01C05407
:102C0000DF4F8883C05CD040CF53DF4F8883C15CE7
:102C1000D040CE53DF4F8883C25CD040CD53DF4FCE
:102C20008883C35CD040CC53DF4F1882C45CD04053
:102C3000CB53DF4F1882C55CD040CA53DF4F188298
:102C4000C65CD040C953DF4F1882C75CD040C85320
:102C5000DF4F1882C85CD040C753DF4F1882C95C71
:102C6000D040C653DF4F1882CA5CD040C553DF4FF7
:102C70001882CB5CD0404091D9025091DA02C35601
:102C8000DF4F59834883CD59D040E091D702F0916E
:102C9000D8028090D3029090D402940140E050E09A
:102CA00060E070E080E090E00FE00E941F211901D9
:102CB0002A013B014C019F0140E050E0CF54DF4F1F
:102CC000688179818A819B81C15BD0400E94AE205E
:102CD00008E00E94382159016A017B018C019101B1
:102CE000A201B301C4010E945621CF55DF4F2883B2
:102CF000C15AD040CB55DF4F3883C55AD040C75555
:102D0000DF4F4883C95AD040C453DF4F5883CC5C4F
:102D1000D040C353DF4F6883CD5CD040C253DF4FF8
:102D20007883CE5CD040C153DF4F8883CF5CD040E6
:102D3000C053DF4F9883C05DD040CB54DF4F6881D4
:102D400079818A819B81C55BD040CB56DF4FC8809B
:102D5000D980EA80FB80C559D0406C197D098E0965
:102D60009F09CB54DF4F688379838A839B83C55B3C
:102D7000D0408090D5029090D602940140E050E07F
:102D800060E070E080E090E000E10E941F21190106
:102D90002A013B014C01C356DF4FE880F980CD5931
:102DA000D040970140E050E0CF54DF4F68817981F7
:102DB0008A819B81C15BD0400E94AE2007E00E94C7
:102DC000382159016A017B018C019101A201B301F3
:102DD000C4010E945621C355DF4FA880CD5AD04070
:102DE000C354DF4FB880CD5BD040C254DF4FC880A2
:102DF000CE5BD040C154DF4FD880CF5BD040C054B1
:102E0000DF4FE880C05CD040CF53DF4FF880C15C1B
:102E1000D040CE53DF4F0881C25CD040CD53DF4F4E
:102E20001881C35CD0400E945F2119012A013B0137
:102E30004C012093BF023092C0024093C1025092D5
:102E4000C2026093C3027092C4028093C502909242
:102E5000C602CF55DF4F2881C15AD040CB55DF4F36
:102E60003881C55AD040C755DF4F4881C95AD04034
:102E7000C453DF4F5881CC5CD040C353DF4F6881CF
:102E8000CD5CD040C253DF4F7881CE5CD040C1537F
:102E9000DF4F8881CF5CD040C053DF4F9881C05D49
:102EA000D040CC53DF4FA880C45CD040CB53DF4F21
:102EB000B880C55CD040CA53DF4FC880C65CD040E4
:102EC000C953DF4FD880C75CD040C853DF4FE8807C
:102ED000C85CD040C753DF4FF880C95CD040C653B0
:102EE000DF4F0881CA5CD040C553DF4F1881CB5CEF
:102EF000D0400E945F212093C7023093C8024093C4
:102F0000C9025093CA026093CB027093CC028093A3
:102F1000CD029093CE02CB54DF4FC880D980EA8097
:102F2000FB80C55BD040C092B702D092B802E0925D
:102F3000B902F092BA02C754DF4FE880F9800A81E3
:102F40001B81C95BD040110FEE08FE2C8701CB56C8
:102F5000DF4FE882F9820A831B83C559D040C754EA
:102F6000DF4FA880C95BD040C654DF4FB880CA5B32
:102F7000D040C554DF4FC880CB5BD040C454DF4F36
:102F8000D880CC5BD040CB56DF4FE880C559D040CD
:102F9000FE2C0E2D1E2D0E945520F22E032F142FD5
:102FA000B52FF62FE72FD82EE92EA0E00E9468213A
:102FB00084F421503109404E5F4F6F4F7F4F8F4F48
:102FC0009F4FF22E032F142FB52FF62FE72FD82E59
:102FD000E92E2F2D302F412F5B2F6F2F7E2F8D2D20
:102FE0009E2D05E10E943821510162017301840187
:102FF0000E945F21F22E032F142FB52FF62FE72FFB
:10300000D82EE92EA0E00E94682184F42150304897
:103010004F4F5F4F6F4F7F4F8F4F9F4FF22E032FBA
:10302000142FB52FF62FE72FD82EE92E2F2D302F66
:10303000412F5B2F6F2F7E2F8D2D9E2D0FE00E9435
:1030400038212093BB023093BC024093BD025093C1
:10305000BE02CB54DF4F688179818A819B81C55B39
:10306000D0400E94F81E20E030E048EC52E40E947C
:10307000481E6093400170934101809342019093F8
:1030800043016091000161708DE00E94C3090E94BC
:103090006D0A00917D0110917E0120917F01309198
:1030A0008001DC01CB01801B910BA20BB30B8131A2
:1030B0009742A105B105A8F10E946D0A60937D01B8
:1030C00070937E0180937F01909380014DE050E0EA
:1030D00061E371E082E792E00E949B09E091720255
:1030E000F09173020190F081E02D6DE082E792E0B3
:1030F0000995E0917202F09173020190F081E02D48
:103100006AE082E792E0099511E010930001809156
:1031100081018F5F883018F48093810102C0109282
:10312000810127E431E030937903209378033BE178
:1031300030938A0380913203843060F480912F03AE
:1031400090913003DC01ED91FC910480F581E02D3C
:10315000099501C080E0882309F40FC1909177039D
:10316000891791F0809377030E94B80ADC01CB01A4
:103170000596A11DB11D8093820390938303A093B4
:103180008403B0938503F9C00E94B80A00918203BA
:103190001091830320918403309185036017710798
:1031A0008207930708F4E9C01092770380913303F4
:1031B000823018F060E00E94C3091092760380917B
:1031C0003203F12C843048F580912F039091300325
:1031D000DC01ED91FC910480F581E02D0995892BAE
:1031E000E1F00091760310E080912F03909130037D
:1031F000DC01ED91FC910680F781E02D0995F80145
:10320000E15DFC4F8783809176038F5F8093760327
:103210008034D0F2FF24F394D7CF80917A03909139
:103220007B03019690937B0380937A03FF2059F0F0
:1032300080917E0390917F03019690937F0380930A
:103240007E038DEF02C08091760380933503873033
:103250000CF493C0909136038091310398138DC084
:1032600080917603082F10E082500E94A307F80196
:10327000E15DFC4F258130E0322F22274681242B4F
:103280008217930759F080917E0390917F030196F6
:1032900090937F0380937E031FEF37C040913703E5
:1032A000E7E0F1E08191841709F46AC0CF52DF4F63
:1032B000B881C15DD040BE13F5CF80917E0390915F
:1032C0007F03019690937F0380937E0311E013C0E8
:1032D0008091380390E0982F882720913903822B22
:1032E000A4E096958795AA95E1F790918A0398179F
:1032F00008F08DC012E04058409337031093380314
:1033000083E0809376030E94DF071093350335C076
:103310002091380330E0322F222780913903282B67
:1033200080913A0390E0982F882740913B03842BAB
:10333000FC0153E0F695E7955A95E1F76E2FAC0145
:10334000477055274115510511F061E06E0F6093EC
:10335000380363E060937603820F931F70E02817B1
:10336000390709F078C060937603452B21F081E09E
:10337000860F809376030E94DF070E94EA0D94C9AE
:10338000842F90E0FC013197E031F10508F03FC057
:10339000EC5CFF4F0C944F208091380390E0982F05
:1033A000882720913903822B9C0114E036952795BC
:1033B0001A95E1F780913A0390E0982F8827509171
:1033C0003B03852B54E0969587955A95E1F71CC0F1
:1033D0008091380390E0982F882720913903822B21
:1033E00084CF80913A0390E0982F882720913B0367
:1033F000FC01E22B9F0190913803892F90E0982FD8
:10340000882750913903852B820F931F6ECF0E941E
:10341000B80A2091800330918103DC01CB01820F37
:10342000931FA11DB11D8093860390938703A093E2
:103430008803B093890310923503E09137038E2FF0
:1034400090E0FC013197E031F10508F096CFEC5B9C
:10345000FF4F0C944F20F90113E0F695E7951A956C
:10346000E1F7EE7FF170E95BFE4FA081B181E22FC1
:10347000EF7002C0B695A795EA95E2F7E62FF0E067
:10348000E15DFC4FA0FF10C0A781C12CD12C7601BB
:10349000C394072E04C0CC0CDD1CEE1CFF1C0A9448
:1034A000D2F7CA2AC78211C0C12CD12C7601C3948D
:1034B000072E04C0CC0CDD1CEE1CFF1C0A94D2F7B6
:1034C000AC2DA095B781AB23A7837F5F783010F038
:1034D0006F5F70E02F5F3F4F42CF2091380330E0A5
:1034E000322F222780913903282B422F80913A03D3
:1034F00090E0982F882730913B03832B382F330F90
:103500003093380353E09927820F911D62E0650FD5
:10351000242F30E028173907ACF4220F331FF901AC
:10352000E95BFE4F20813181E52FF0E0E15DFC4F4A
:1035300037835F5FE52FF0E0E15DFC4F27834F5F4E
:10354000562FE4CF5093760316CF8091380390E046
:10355000982F882720913903822BFC0144E0F695AF
:10356000E7954A95E1F78F7090913A03FF27EE0FA8
:10357000FF1FE95BFE4F9F3F91F4C12CD12C7601D8
:10358000C39404C0CC0CDD1CEE1CFF1C8A95D2F742
:10359000D701C60120813181822B932B13C0E12CEE
:1035A000F12C8701E39404C0EE0CFF1C001F111FD7
:1035B0008A95D2F7D801C7018095909520813181F5
:1035C000822393239183808316E0F12EF092760379
:1035D000D2CEE0913903F0E0EE0FFF1FE95BFE4F22
:1035E00080913A0390E0982F882720913B03822B0B
:1035F0009183808306E000937603BDCE80913803EB
:1036000090E0982F882720913903822B20913A034C
:1036100030E0322F222740913B03242B280F391F03
:1036200040E057E08217930779F2682F6F70E52F1B
:10363000F0E0E15DFC4FA781B0E0042E02C0B5953B
:10364000A7950A94E2F7FC0114E0F695E7951A9520
:10365000E1F7FF27EE0FFF1FE95BFE4FC12CD12CD6
:103660007601C39404C0CC0CDD1CEE1CFF1C6A95D3
:10367000D2F7A0FF05C060817181C62AD72A06C093
:10368000C094D09460817181C622D722D182C08239
:103690004F5F483010F05F5F40E00196C3CF20914C
:1036A000390370913B0310923A0316E010937603AE
:1036B00030E0220F331F40E050E060E0671709F46C
:1036C0005ACEFA01E15DFC4F868590E0982F88275D
:1036D000E7858E2BFA01E20FF31FE95BFE4F918322
:1036E00080836F5F4E5F5F4FE9CFE8E9F2E01382BE
:1036F000128288EE93E0A0E0B0E084839583A683F5
:10370000B78325E131E031832083E2E7F2E01382E1
:10371000128284839583A683B78385E291E09183A7
:1037200080838EE292E0958784878AEE91E0978786
:10373000868785EC90E0918B808B84EC90E0938B76
:10374000828B80EC90E0958B848B81EC90E0978B62
:10375000868B82EC90E0918F808F86EC90E0938F47
:10376000828F84E0848F83E0858F87E0868F85E079
:10377000878F81E080A3E7E9F3E040E050E060E874
:103780007FE34083518362837383148215821682A0
:103790001782108611861286138614861586168661
:1037A0001786EBE8F3E010821182128213821482F2
:1037B0001582168217821086118612861386EFE212
:1037C000F3E08283138282E0848388EE93E0909317
:1037D000810380938003E2E2F3E08AE2808386E063
:1037E0008487E5E1F3E09BE290838487E8E0F3E0FF
:1037F0009CE290838487EBEFF2E09DE290838487E4
:10380000EEEEF2E09EE290838487E1EEF2E09FE24A
:1038100090838487109297021092960210929502DC
:10382000109294020E947C0986E790E09093D00267
:103830008093CF0288E68093A4020895F8940C94B4
:1038400074210E942C1CA59F900DB49F900DA49FE5
:10385000800D911D11240895A29FB001B39FC00156
:10386000A39F700D811D1124911DB29F700D811DAC
:103870001124911D0895CF93DF938230910510F4A8
:1038800082E090E0E091FE03F091FF0320E030E061
:10389000C0E0D0E0309711F14081518148175907BD
:1038A000C0F04817590761F482819381209719F07D
:1038B0009B838A832BC09093FF038093FE0326C0D3
:1038C0002115310519F04217530718F49A01BE016A
:1038D000DF01EF010280F381E02DDCCF21153105FE
:1038E00009F1281B390B2430310590F412968D9183
:1038F0009C9113976115710521F0FB0193838283DD
:1039000004C09093FF038093FE03FD01329644C0F0
:10391000FD01E20FF31F81939193225031092D9302
:103920003C933AC02091FC033091FD03232B41F4DA
:1039300020910301309104013093FD032093FC0397
:1039400020910101309102012115310541F42DB77B
:103950003EB74091050150910601241B350BE091C3
:10396000FC03F091FD03E217F307A0F42E1B3F0BBD
:103970002817390778F0AC014E5F5F4F24173507E1
:1039800048F04E0F5F1F5093FD034093FC0381935B
:10399000919302C0E0E0F0E0CF01DF91CF91089574
:1039A0000F931F93CF93DF93009709F48CC0FC0112
:1039B0003297138212820091FE031091FF030115CA
:1039C000110581F420813181820F931F2091FC0326
:1039D0003091FD032817390779F5F093FD03E09343
:1039E000FC0371C0D80140E050E0AE17BF0750F4AF
:1039F00012962D913C911397AD012115310509F1D6
:103A0000D901F3CF9D01DA01338322836081718173
:103A1000860F971F8217930769F4EC01288139817B
:103A2000260F371F2E5F3F4F318320838A819B8172
:103A300093838283452B29F4F093FF03E093FE03E5
:103A400042C01396FC93EE931297ED014991599160
:103A50009E01240F351FE217F30771F480819181D5
:103A6000840F951F029611969C938E938281938169
:103A700013969C938E931297E0E0F0E0D801129693
:103A80008D919C911397009719F0F8018C01F6CF56
:103A90008D919C9198012E5F3F4F820F931F209133
:103AA000FC033091FD032817390769F4309729F496
:103AB0001092FF031092FE0302C013821282109331
:103AC000FD030093FC03DF91CF911F910F910895A7
:103AD000A0E0B0E0EEE6FDE10C94EC20EC010097F4
:103AE00021F4CB010E943B1CB8C0FC01E60FF71F7C
:103AF0009C0122503109E217F30708F4ACC0D90148
:103B00000D911C91119706171707B0F0053011059C
:103B100008F49FC0C80104978617970708F499C056
:103B200002501109061B170B019311936D937C939F
:103B3000CF010E94D01C8DC05B01A01AB10A4C01BC
:103B4000800E911EA091FE03B091FF0340E050E073
:103B5000E12CF12C109709F44AC0A815B905D1F54C
:103B60006D907C901197630182E0C80ED11CCA143D
:103B7000DB0480F1A3014A195B096A0182E0C80EE7
:103B8000D11C1296BC9012971396AC91B5E0CB164F
:103B9000D10440F0B282A38351834083D9016D9355
:103BA0007C930AC00E5F1F4FC301800F911FF90164
:103BB00091838083EB2DFA2FE114F10431F0D701CA
:103BC0001396FC93EE93129744C0F093FF03E09397
:103BD000FE033FC08D919C9111974817590708F437
:103BE000AC017D0112960D90BC91A02DB3CF8091B8
:103BF000FC039091FD0388159905E1F446175707DA
:103C0000C8F48091010190910201009741F48DB7B1
:103C10009EB74091050150910601841B950BE81752
:103C2000F907C8F4F093FD03E093FC03F9017183F5
:103C300060830FC0CB010E943B1C7C01009759F0B0
:103C4000A801BE010E943F1ECE010E94D01CC701E8
:103C500004C0CE0102C080E090E0CDB7DEB7EEE058
:103C60000C940821FB01DC0104C08D9101908019A6
:103C700021F441505040C8F7881B990B0895FB016F
:103C8000DC0102C001900D9241505040D8F70895D8
:103C90000E945C1E0C94981F0E94911F58F00E9475
:103CA0008A1F40F029F45F3F29F00C94711F5111D5
:103CB0000C94CC1F0C94771F0E94A91F68F39923C2
:103CC000B1F3552391F3951B550BBB27AA27621718
:103CD0007307840738F09F5F5F4F220F331F441F25
:103CE000AA1FA9F335D00E2E3AF0E0E832D0915059
:103CF0005040E695001CCAF72BD0FE2F29D0660F46
:103D0000771F881FBB1F261737074807AB07B0E888
:103D100009F0BB0B802DBF01FF2793585F4F3AF08E
:103D20009E3F510578F00C94711F0C94CC1F5F3F9F
:103D3000E4F3983ED4F3869577956795B795F79514
:103D40009F5FC9F7880F911D9695879597F90895FC
:103D5000E1E0660F771F881FBB1F62177307840798
:103D6000BA0720F0621B730B840BBA0BEE1F88F7A7
:103D7000E0950895BEE304D008F490E80895BFE309
:103D800022273327A9010E94B11F60F19F5748F1F4
:103D9000B91740F1BFE3B91B9927B8503AF4660F41
:103DA000771F881F991FB395D2F316C0B8504AF0F9
:103DB000232F342F452F562F672F782F8827B85061
:103DC000BAF7B85F49F08695779567955795479507
:103DD00037952795BA95B9F716F40E947A1F8894FB
:103DE0000895889460E070E0CB010895E89409C0DC
:103DF00097FB3EF490958095709561957F4F8F4F1E
:103E00009F4F9923A9F0F92F96E9BB279395F69533
:103E1000879577956795B795F111F8CFFAF4BB0FB1
:103E200011F460FF1BC06F5F7F4F8F4F9F4F16C015
:103E3000882311F096E911C0772321F09EE8872F9F
:103E4000762F05C0662371F096E8862F70E060E05B
:103E50002AF09A95660F771F881FDAF7880F9695D4
:103E6000879597F90895E894F92F96EBFF2381F051
:103E7000121613061406440B9395F69587957795BD
:103E8000679557954040FF23B9F71BC099270895C0
:103E9000882351F49850D2F7872B762F652F542F13
:103EA000432F322F20E0B1F3121613061406440BF1
:103EB00088233AF09A95440F551F661F771F881F75
:103EC000CAF755234AF4440F551F11F460FF04C08C
:103ED0006F5F7F4F8F4F9F4F880F9695879597F90C
:103EE000089597F99F6780E870E060E008959FEF7C
:103EF00080EC0895909580957095609550954095CB
:103F0000309521953F4F4F4F5F4F6F4F7F4F8F4FF2
:103F10009F4F089500240A941616170618060906DE
:103F2000089500240A94121613061406050608952F
:103F3000092E0394000C11F4882352F0BB0F40F4B7
:103F4000BF2B11F460FF04C06F5F7F4F8F4F9F4FF7
:103F5000089557FD9058440F551F59F05F3F71F079
:103F60004795880F97FB991F61F09F3F79F08795E0
:103F70000895121613061406551FF2CF4695F1DF69
:103F800008C0161617061806991FF1CF86957105F9
:103F9000610508940895E894BB2766277727CB012D
:103FA00097F908950E94E51F0C94981F0E948A1F9C
:103FB00038F00E94911F20F0952311F00C94711F8E
:103FC0000C94771F11240C94CC1F0E94A91F70F32E
:103FD000959FC1F3950F50E0551F629FF001729FAE
:103FE000BB27F00DB11D639FAA27F00DB11DAA1FBD
:103FF000649F6627B00DA11D661F829F2227B00D0A
:10400000A11D621F739FB00DA11D621F839FA00D94
:10401000611D221F749F3327A00D611D231F849FE4
:10402000600D211D822F762F6A2F11249F5750403B
:104030009AF0F1F088234AF0EE0FFF1FBB1F661FB6
:10404000771F881F91505040A9F79E3F510580F07F
:104050000C94711F0C94CC1F5F3FE4F3983ED4F393
:10406000869577956795B795F795E7959F5FC1F723
:10407000FE2B880F911D9695879597F90895DB0182
:104080008F939F930E94211CBF91AF91A29F800D9F
:10409000911DA39F900DB29F900D11240895EE0FD6
:1040A000FF1F0590F491E02D0994DF93CF931F93A8
:1040B0000F939A9DF02D219FF00D8B9DF00D8A9D01
:1040C000E02DF10D039FF00D029FE00DF11D4E9DBF
:1040D000E00DF11D5E9DF00D4F9DF00D7F936F93F0
:1040E000BF92AF925F934F93D5010E942C1C8B011E
:1040F000AC01D7010E942C1CEB01E80FF91FD6017F
:104100000E94A5202F913F91D6010E942C1CC60F22
:10411000D71FE81FF91FAF91BF910E94A5202F91D3
:104120003F910E942C1CC60FD71FE81FF91FD60114
:104130000E942C1CE60FF71F9801BE01CF0111242D
:104140000F911F91CF91DF9108950E942C1C460F73
:10415000571FC81FD91F08F43196089597FB57FFC2
:104160000C94BE209F938F930E94BE206E1B7F0BEA
:10417000AF91BF918A0B9B0B0895E894DF93CF9387
:10418000FC01DB010E942C1C7F936F93E9019A01D3
:10419000AC01BF93AF933F932F93DF010E942C1C80
:1041A00026F46C1B7D0B820B930B9E01EB01FC0133
:1041B0000E94A520AF91BF912F913F910E94A52011
:1041C000BE01CF01F9012F913F91CF91DF91089569
:1041D0002F923F924F925F926F927F928F929F9217
:1041E000AF92BF92CF92DF92EF92FF920F931F9305
:1041F000CF93DF93CDB7DEB7CA1BDB0B0FB6F894B6
:10420000DEBF0FBECDBF09942A88398848885F84F5
:104210006E847D848C849B84AA84B984C884DF8066
:10422000EE80FD800C811B81AA81B981CE0FD11D4A
:104230000FB6F894DEBF0FBECDBFED0108950F930A
:10424000083090F0982F872F762F652F542F432F0B
:10425000322F22270850F4CF220F331F441F551F3F
:10426000661F771F881F991F0A95B2F70F9108954F
:1042700097FB10F8169400080F93083098F0085038
:10428000232F342F452F562F672F782F892F902DCE
:10429000F4CF0594979587957795679557954795AA
:1042A000379527950A95AAF70F9108952A0D3B1D7A
:1042B0004C1D5D1D6E1D7F1D801F911F08952A19C5
:1042C0003B094C095D096E097F09800B910B08952C
:1042D0000024A7FD00942A1730054005500560050D
:0C42E0007005800590050895F894FFCF4C
:1042EC00010000000420000102030405060F10E881
:1042FC000300000000280DEB0CE30C2D051E051D22
:10430C000500000000510D9B09DA0D9E0DBE0D93AA
:10431C000D73756D2074696E6720776F6E67000082
:00000001FF
